{
  "_format": "hh-sol-artifact-1",
  "contractName": "DeNews",
  "sourceName": "contracts/DeNews.sol",
  "abi": [
    {
      "inputs": [],
      "stateMutability": "nonpayable",
      "type": "constructor"
    },
    {
      "inputs": [
        {
          "internalType": "address",
          "name": "_author",
          "type": "address"
        }
      ],
      "name": "addAuthor",
      "outputs": [],
      "stateMutability": "nonpayable",
      "type": "function"
    },
    {
      "inputs": [],
      "name": "admin",
      "outputs": [
        {
          "internalType": "address",
          "name": "",
          "type": "address"
        }
      ],
      "stateMutability": "view",
      "type": "function"
    },
    {
      "inputs": [
        {
          "internalType": "uint256",
          "name": "_id",
          "type": "uint256"
        }
      ],
      "name": "getArticle",
      "outputs": [
        {
          "internalType": "uint256",
          "name": "id",
          "type": "uint256"
        },
        {
          "internalType": "string",
          "name": "title",
          "type": "string"
        },
        {
          "internalType": "address",
          "name": "author",
          "type": "address"
        },
        {
          "internalType": "string",
          "name": "hash",
          "type": "string"
        },
        {
          "internalType": "uint256",
          "name": "timestamp",
          "type": "uint256"
        },
        {
          "internalType": "enum DeNews.AccessType",
          "name": "access",
          "type": "uint8"
        }
      ],
      "stateMutability": "view",
      "type": "function"
    },
    {
      "inputs": [],
      "name": "getArticleCount",
      "outputs": [
        {
          "internalType": "uint256",
          "name": "",
          "type": "uint256"
        }
      ],
      "stateMutability": "view",
      "type": "function"
    },
    {
      "inputs": [
        {
          "internalType": "address",
          "name": "_author",
          "type": "address"
        }
      ],
      "name": "getArticlesByAuthor",
      "outputs": [
        {
          "internalType": "uint256[]",
          "name": "",
          "type": "uint256[]"
        }
      ],
      "stateMutability": "view",
      "type": "function"
    },
    {
      "inputs": [
        {
          "internalType": "address",
          "name": "",
          "type": "address"
        }
      ],
      "name": "isAuthor",
      "outputs": [
        {
          "internalType": "bool",
          "name": "",
          "type": "bool"
        }
      ],
      "stateMutability": "view",
      "type": "function"
    },
    {
      "inputs": [
        {
          "internalType": "string",
          "name": "_title",
          "type": "string"
        },
        {
          "internalType": "string",
          "name": "_offChainHash",
          "type": "string"
        },
        {
          "internalType": "enum DeNews.AccessType",
          "name": "_access",
          "type": "uint8"
        }
      ],
      "name": "publishArticle",
      "outputs": [],
      "stateMutability": "nonpayable",
      "type": "function"
    }
  ],
  "bytecode": "0x6080604052348015600f57600080fd5b50336000806101000a81548173ffffffffffffffffffffffffffffffffffffffff021916908373ffffffffffffffffffffffffffffffffffffffff1602179055506001600360008060009054906101000a900473ffffffffffffffffffffffffffffffffffffffff1673ffffffffffffffffffffffffffffffffffffffff1673ffffffffffffffffffffffffffffffffffffffff16815260200190815260200160002060006101000a81548160ff02191690831515021790555061149f806100d86000396000f3fe608060405234801561001057600080fd5b506004361061007d5760003560e01c8063bd85d8671161005b578063bd85d867146100ea578063d4b125301461011f578063e899d5ff1461014f578063f851a4401461016d5761007d565b80631521ba3f146100825780632ddbc97e146100b257806384899596146100ce575b600080fd5b61009c600480360381019061009791906109c5565b61018b565b6040516100a99190610aba565b60405180910390f35b6100cc60048036038101906100c791906109c5565b610222565b005b6100e860048036038101906100e39190610c47565b61030b565b005b61010460048036038101906100ff9190610cfe565b61058a565b60405161011696959493929190610e3f565b60405180910390f35b610139600480360381019061013491906109c5565b610902565b6040516101469190610ec9565b60405180910390f35b610157610922565b6040516101649190610ee4565b60405180910390f35b61017561092f565b6040516101829190610eff565b60405180910390f35b6060600260008373ffffffffffffffffffffffffffffffffffffffff1673ffffffffffffffffffffffffffffffffffffffff16815260200190815260200160002080548060200260200160405190810160405280929190818152602001828054801561021657602002820191906000526020600020905b815481526020019060010190808311610202575b50505050509050919050565b60008054906101000a900473ffffffffffffffffffffffffffffffffffffffff1673ffffffffffffffffffffffffffffffffffffffff163373ffffffffffffffffffffffffffffffffffffffff16146102b0576040517f08c379a00000000000000000000000000000000000000000000000000000000081526004016102a790610f8c565b60405180910390fd5b6001600360008373ffffffffffffffffffffffffffffffffffffffff1673ffffffffffffffffffffffffffffffffffffffff16815260200190815260200160002060006101000a81548160ff02191690831515021790555050565b600360003373ffffffffffffffffffffffffffffffffffffffff1673ffffffffffffffffffffffffffffffffffffffff16815260200190815260200160002060009054906101000a900460ff16610397576040517f08c379a000000000000000000000000000000000000000000000000000000000815260040161038e90610ff8565b60405180910390fd5b602e8251146103db576040517f08c379a00000000000000000000000000000000000000000000000000000000081526004016103d290611064565b60405180910390fd5b6000600180549050905060016040518060c001604052808381526020018681526020013373ffffffffffffffffffffffffffffffffffffffff16815260200185815260200142815260200184600181111561043957610438610dc8565b5b81525090806001815401808255809150506001900390600052602060002090600602016000909190919091506000820151816000015560208201518160010190816104849190611290565b5060408201518160020160006101000a81548173ffffffffffffffffffffffffffffffffffffffff021916908373ffffffffffffffffffffffffffffffffffffffff16021790555060608201518160030190816104e19190611290565b506080820151816004015560a08201518160050160006101000a81548160ff0219169083600181111561051757610516610dc8565b5b02179055505050600260003373ffffffffffffffffffffffffffffffffffffffff1673ffffffffffffffffffffffffffffffffffffffff16815260200190815260200160002081908060018154018082558091505060019003906000526020600020016000909190919091505550505050565b600060606000606060008060018054905087106105dc576040517f08c379a00000000000000000000000000000000000000000000000000000000081526004016105d3906113ae565b60405180910390fd5b6000600188815481106105f2576105f16113ce565b5b90600052602060002090600602016040518060c001604052908160008201548152602001600182018054610625906110b3565b80601f0160208091040260200160405190810160405280929190818152602001828054610651906110b3565b801561069e5780601f106106735761010080835404028352916020019161069e565b820191906000526020600020905b81548152906001019060200180831161068157829003601f168201915b505050505081526020016002820160009054906101000a900473ffffffffffffffffffffffffffffffffffffffff1673ffffffffffffffffffffffffffffffffffffffff1673ffffffffffffffffffffffffffffffffffffffff16815260200160038201805461070d906110b3565b80601f0160208091040260200160405190810160405280929190818152602001828054610739906110b3565b80156107865780601f1061075b57610100808354040283529160200191610786565b820191906000526020600020905b81548152906001019060200180831161076957829003601f168201915b50505050508152602001600482015481526020016005820160009054906101000a900460ff1660018111156107be576107bd610dc8565b5b60018111156107d0576107cf610dc8565b5b8152505090506001808111156107e9576107e8610dc8565b5b8160a001516001811115610800576107ff610dc8565b5b036108ce57806040015173ffffffffffffffffffffffffffffffffffffffff163373ffffffffffffffffffffffffffffffffffffffff16148061088e575060008054906101000a900473ffffffffffffffffffffffffffffffffffffffff1673ffffffffffffffffffffffffffffffffffffffff163373ffffffffffffffffffffffffffffffffffffffff16145b6108cd576040517f08c379a00000000000000000000000000000000000000000000000000000000081526004016108c490611449565b60405180910390fd5b5b806000015181602001518260400151836060015184608001518560a001519650965096509650965096505091939550919395565b60036020528060005260406000206000915054906101000a900460ff1681565b6000600180549050905090565b60008054906101000a900473ffffffffffffffffffffffffffffffffffffffff1681565b6000604051905090565b600080fd5b600080fd5b600073ffffffffffffffffffffffffffffffffffffffff82169050919050565b600061099282610967565b9050919050565b6109a281610987565b81146109ad57600080fd5b50565b6000813590506109bf81610999565b92915050565b6000602082840312156109db576109da61095d565b5b60006109e9848285016109b0565b91505092915050565b600081519050919050565b600082825260208201905092915050565b6000819050602082019050919050565b6000819050919050565b610a3181610a1e565b82525050565b6000610a438383610a28565b60208301905092915050565b6000602082019050919050565b6000610a67826109f2565b610a7181856109fd565b9350610a7c83610a0e565b8060005b83811015610aad578151610a948882610a37565b9750610a9f83610a4f565b925050600181019050610a80565b5085935050505092915050565b60006020820190508181036000830152610ad48184610a5c565b905092915050565b600080fd5b600080fd5b6000601f19601f8301169050919050565b7f4e487b7100000000000000000000000000000000000000000000000000000000600052604160045260246000fd5b610b2f82610ae6565b810181811067ffffffffffffffff82111715610b4e57610b4d610af7565b5b80604052505050565b6000610b61610953565b9050610b6d8282610b26565b919050565b600067ffffffffffffffff821115610b8d57610b8c610af7565b5b610b9682610ae6565b9050602081019050919050565b82818337600083830152505050565b6000610bc5610bc084610b72565b610b57565b905082815260208101848484011115610be157610be0610ae1565b5b610bec848285610ba3565b509392505050565b600082601f830112610c0957610c08610adc565b5b8135610c19848260208601610bb2565b91505092915050565b60028110610c2f57600080fd5b50565b600081359050610c4181610c22565b92915050565b600080600060608486031215610c6057610c5f61095d565b5b600084013567ffffffffffffffff811115610c7e57610c7d610962565b5b610c8a86828701610bf4565b935050602084013567ffffffffffffffff811115610cab57610caa610962565b5b610cb786828701610bf4565b9250506040610cc886828701610c32565b9150509250925092565b610cdb81610a1e565b8114610ce657600080fd5b50565b600081359050610cf881610cd2565b92915050565b600060208284031215610d1457610d1361095d565b5b6000610d2284828501610ce9565b91505092915050565b610d3481610a1e565b82525050565b600081519050919050565b600082825260208201905092915050565b60005b83811015610d74578082015181840152602081019050610d59565b60008484015250505050565b6000610d8b82610d3a565b610d958185610d45565b9350610da5818560208601610d56565b610dae81610ae6565b840191505092915050565b610dc281610987565b82525050565b7f4e487b7100000000000000000000000000000000000000000000000000000000600052602160045260246000fd5b60028110610e0857610e07610dc8565b5b50565b6000819050610e1982610df7565b919050565b6000610e2982610e0b565b9050919050565b610e3981610e1e565b82525050565b600060c082019050610e546000830189610d2b565b8181036020830152610e668188610d80565b9050610e756040830187610db9565b8181036060830152610e878186610d80565b9050610e966080830185610d2b565b610ea360a0830184610e30565b979650505050505050565b60008115159050919050565b610ec381610eae565b82525050565b6000602082019050610ede6000830184610eba565b92915050565b6000602082019050610ef96000830184610d2b565b92915050565b6000602082019050610f146000830184610db9565b92915050565b7f4f6e6c792061646d696e2063616e20706572666f726d2074686973206163746960008201527f6f6e000000000000000000000000000000000000000000000000000000000000602082015250565b6000610f76602283610d45565b9150610f8182610f1a565b604082019050919050565b60006020820190508181036000830152610fa581610f69565b9050919050565b7f4e6f7420617574686f72697a656420746f207075626c69736800000000000000600082015250565b6000610fe2601983610d45565b9150610fed82610fac565b602082019050919050565b6000602082019050818103600083015261101181610fd5565b9050919050565b7f496e76616c696420495046532068617368000000000000000000000000000000600082015250565b600061104e601183610d45565b915061105982611018565b602082019050919050565b6000602082019050818103600083015261107d81611041565b9050919050565b7f4e487b7100000000000000000000000000000000000000000000000000000000600052602260045260246000fd5b600060028204905060018216806110cb57607f821691505b6020821081036110de576110dd611084565b5b50919050565b60008190508160005260206000209050919050565b60006020601f8301049050919050565b600082821b905092915050565b6000600883026111467fffffffffffffffffffffffffffffffffffffffffffffffffffffffffffffffff82611109565b6111508683611109565b95508019841693508086168417925050509392505050565b6000819050919050565b600061118d61118861118384610a1e565b611168565b610a1e565b9050919050565b6000819050919050565b6111a783611172565b6111bb6111b382611194565b848454611116565b825550505050565b600090565b6111d06111c3565b6111db81848461119e565b505050565b5b818110156111ff576111f46000826111c8565b6001810190506111e1565b5050565b601f82111561124457611215816110e4565b61121e846110f9565b8101602085101561122d578190505b611241611239856110f9565b8301826111e0565b50505b505050565b600082821c905092915050565b600061126760001984600802611249565b1980831691505092915050565b60006112808383611256565b9150826002028217905092915050565b61129982610d3a565b67ffffffffffffffff8111156112b2576112b1610af7565b5b6112bc82546110b3565b6112c7828285611203565b600060209050601f8311600181146112fa57600084156112e8578287015190505b6112f28582611274565b86555061135a565b601f198416611308866110e4565b60005b828110156113305784890151825560018201915060208501945060208101905061130b565b8683101561134d5784890151611349601f891682611256565b8355505b6001600288020188555050505b505050505050565b7f41727469636c6520646f65736e27742065786973740000000000000000000000600082015250565b6000611398601583610d45565b91506113a382611362565b602082019050919050565b600060208201905081810360008301526113c78161138b565b9050919050565b7f4e487b7100000000000000000000000000000000000000000000000000000000600052603260045260246000fd5b7f526573747269637465642061727469636c650000000000000000000000000000600082015250565b6000611433601283610d45565b915061143e826113fd565b602082019050919050565b6000602082019050818103600083015261146281611426565b905091905056fea26469706673582212200a125291b75ad230452a50a74149c4e2613f2ec659d11ea2d3d3a55bd762f2c364736f6c634300081c0033",
  "linkReferences": {},
  "deployedLinkReferences": {}
}